:100000000C942A000C94BC000C94BC000C94BC0012
:100010000C94BC000C94BC000C94BC000C94BC0070
:100020000C94BC000C94BC000C94BC000C94BC0060
:100030000C94BC000C94BC000C94BC000C94BC0050
:100040000C94BC000C94BC000C94BC000C94BC0040
:100050000C94BC0011241FBECFE5D4E0DEBFCDBFA1
:0C0060000E9436000C94B100F894FFCF11
:10006C008FEF84BB80E885BB87EA91E60197F1F7B7
:10007C0000C0000015BA83EC99E00197F1F700C0BD
:10008C00000080E485BB87EA91E60197F1F700C098
:10009C00000015BA83EC99E00197F1F700C000005D
:1000AC0080E285BB87EA91E60197F1F700C000007A
:1000BC0015BA83EC99E00197F1F700C0000080E1DC
:1000CC0085BB87EA91E60197F1F700C0000015BAED
:1000DC0083EC99E00197F1F700C0000088E085BB44
:1000EC0087EA91E60197F1F700C0000015BA83EC9E
:1000FC0099E00197F1F700C0000084E085BB87EA26
:10010C0091E60197F1F700C0000015BA83EC99E075
:10011C000197F1F700C0000082E085BB87EA91E609
:10012C000197F1F700C0000015BA83EC99E0019734
:10013C00F1F700C0000081E085BB87EA91E60197EA
:10014C00F1F700C0000015BA83EC99E00197F1F7C4
:06015C0000C0000087CF87
:10016200EC010E94C1000E94C000CE010E94C200A8
:06017200CE010E94BE0058
:040178000C940000E3
:04017C000E943400A9
:020180000895E0
:020182000895DE
:020184000895DC
:00000001FF
