:100000000C942A000C9434000C9434000C943400AA
:100010000C9434000C9434000C9434000C94340090
:100020000C9434000C9434000C9434000C94340080
:100030000C9434000C9434000C9434000C94340070
:100040000C9434000C9434000C9434000C94340060
:100050000C94340011241FBECFE5D4E0DEBFCDBF29
:100060000E9436000C94B1000C9400008FEF84BB0A
:1000700070E860E450E240E138E024E092E081E0A2
:1000800075BBE7EAF1E63197F1F700C0000015BA59
:10009000E3ECF9E03197F1F700C0000065BBE7EA57
:1000A000F1E63197F1F700C0000015BAE3ECF9E092
:1000B0003197F1F700C0000055BBE7EAF1E6319750
:1000C000F1F700C0000015BAE3ECF9E03197F1F761
:1000D00000C0000045BBE7EAF1E63197F1F700C048
:1000E000000015BAE3ECF9E03197F1F700C0000029
:1000F00035BBE7EAF1E63197F1F700C0000015BA29
:10010000E3ECF9E03197F1F700C0000025BBE7EA26
:10011000F1E63197F1F700C0000015BAE3ECF9E021
:100120003197F1F700C0000095BBE7EAF1E631979F
:10013000F1F700C0000015BAE3ECF9E03197F1F7F0
:1001400000C0000085BBE7EAF1E63197F1F700C097
:10015000000015BAE3ECF9E03197F1F700C00000B8
:060160008FCFF894FFCFE1
:00000001FF
